S00E00007072656C61622E73726563A0
S11300000C9434000C9446000C9446000C94460066
S11300100C9448000C9446000C9446000C94460042
S11300200C9446000C9446000C9446000C94460034
S11300300C9446000C9446000C9446000C94460024
S11300400C9446000C9446000C9446000C94460014
S11300500C9446000C9446000C9446000C94460004
S11300600C9446000C94460011241FBECFEFD8E038
S1130070DEBFCDBF21E0A0E0B1E001C01D92A530FC
S1130080B207E1F70E94B2000C94C1000C94000086
S11300901F920F920FB60F9211242F933F934F93F9
S11300A08F939F9386B18093000120910101309139
S11300B002012115310599F58230B9F480910301CB
S11300C0909104010196909304018093030181159A
S11300D0914021F410920401109203012F5F3F4FCD
S11300E030930201209301011EC08130E1F480911C
S11300F003019091040101979093040180930301FB
S1130100992334F48FEF90E09093040180930301DA
S11301102F5F3F4F309302012093010104C01092DE
S11301200201109201019F918F914F913F912F9164
S11301300F900FBE0F901F901895F8948FEF8AB907
S1130140E8E6F0E01082808182608083ECE6F0E0F3
S11301508081816080838081826080831092C1006D
S1130160789408950E949D00809103018BB92FEF2C
S113017081EE94E0215080409040E1F700C00000FF
S1090180F3CFF894FFCF59
S9030000FC
