:100000000C9434000C9451000C9451000C94510049
:100010000C9453000C9451000C9451000C9451001A
:100020000C9451000C9451000C9451000C9451000C
:100030000C9451000C9451000C9451000C945100FC
:100040000C9451000C9451000C9451000C945100EC
:100050000C9451000C9480000C9451000C945100AD
:100060000C9451000C94510011241FBECFEFD8E026
:10007000DEBFCDBF11E0A0E0B1E0EEE5F2E002C0EE
:1000800005900D92A031B107D9F721E0A0E1B1E0D0
:1000900001C01D92A631B207E1F70E94D2000C9474
:1000A0002D010C9400001F920F920FB60F92112495
:1000B0008F939F9396B190931301809114018111B6
:1000C00016C091FF09C0909115019F5F9093150193
:1000D0008F5F809314010DC090FF0BC090911501AC
:1000E0009150909315018F5F8093140102C010927C
:1000F00014019F918F910F900FBE0F901F90189534
:100100001F920F920FB60F9211248F939F93EF932C
:10011000FF938091790080931201982F9F709093A4
:10012000110182958F7080931001EAE7F0E08081E1
:100130008F7E8083FF91EF919F918F910F900FBEE3
:100140000F901F901895F8948FEF8AB98FE784B9B4
:100150008CE187B9E8E6F0E01082808182608083DC
:10016000ECE6F0E080818160808380818260808322
:100170001092C10078940895ACE7B0E01C92EAE7D1
:10018000F0E010828C9180648C938C9186628C93C9
:10019000108280818868808380818760808310924C
:1001A0007B0008950E94BC000E94A300EAE7F0E0F3
:1001B0008081806480838FE79EE30197F1F700C020
:1001C000000088B1877F88B988B18F7E88B988B1EF
:1001D000886088B9E0911101F0E0E050FF4F808124
:1001E00085B92E9B04C088B1846088B903C088B1EA
:1001F0008B7F88B98FE79EE30197F1F700C000007D
:1002000088B1877F88B988B1806188B9E091100191
:10021000F0E0E050FF4F808185B92E9B04C088B18B
:10022000846088B903C088B18B7F88B98FE79EE36B
:100230000197F1F700C00000809115018BB99091F2
:10024000120180911501981720F088B1806288B959
:0E025000ADCF88B18F7D88B9A9CFF894FFCFCC
:10025E003F065B4F666D7D077F6F777C395E7971E8
:00000001FF
