S00E00007072656C61622E73726563A0
S11300000C9434000C9451000C9451000C94510045
S11300100C9453000C9451000C9451000C94510016
S11300200C9451000C9451000C9451000C94510008
S11300300C9451000C9451000C9451000C945100F8
S11300400C9451000C9451000C9451000C945100E8
S11300500C9451000C9451000C9451000C945100D8
S11300600C9451000C94510011241FBECFEFD8E022
S1130070DEBFCDBF11E0A0E0B1E0E4E6F1E002C0F4
S113008005900D92A230B107D9F721E0A2E0B1E0CA
S113009001C01D92A530B207E1F70E9497000C94AD
S11300A0B0000C9400001F920F920FB60F9211240F
S11300B02F933F938F939F9386B180930201209156
S11300C00301309104012115310521F5813081F4BA
S11300D08091000190910101019690930101809318
S11300E000012F5F3F4F309304012093030116C09A
S11300F08230A1F4809100019091010101979093C5
S11301000101809300012F5F3F4F3093040120933E
S1130110030104C010920401109203019F918F9176
S11301203F912F910F900FBE0F901F901895F89448
S11301308FEF8AB917B8E8E6F0E010828081826018
S11301408083ECE6F0E0808181608083808182603E
S113015080837894809100018BB980E090E00895C9
S1070160F894FFCF3D
S1050164050090
S9030000FC
